:020000040000FA
:100000000C9463000C948B000C948B000C948B006C
:100010000C948B000C948B000C948B000C94B2020B
:100020000C948B000C948B000C948B000C948B0024
:100030000C948B000C948B000C948B000C948B0014
:100040000C9468020C948B000C9434030C940E03F3
:100050000C948B000C948B000C948B000C948B00F4
:100060000C948B000C948B000000000023002600F1
:1000700029000200000000240027002A00000000E0
:1000800000250028002B00040404040404040402D6
:100090000202020202030303030303010204081025
:1000A00020408001020408102001020408102000F2
:1000B0000000080002010000030407000000000027
:1000C000000000008C0511241FBECFEFD8E0DEBF7A
:1000D000CDBF11E0A0E0B1E0E4E0FCE002C005909B
:1000E0000D92AC31B107D9F721E0ACE1B1E001C02C
:1000F0001D92A33DB207E1F710E0C3E6D0E004C0D3
:100100002197FE010E94FA05C236D107C9F70E9465
:10011000AB030C9400060C94000090E0FC01E15548
:10012000FF4F2491FC01E556FF4F3491FC01E95744
:10013000FF4FE491EE23C9F0222339F0233001F17F
:10014000A8F4213019F1223029F1F0E0EE0FFF1F61
:10015000E358FF4FA591B4918FB7F894EC916111DA
:1001600026C030953E233C938FBF08952730A9F0D9
:100170002830C9F0243049F7809180008F7D03C07A
:10018000809180008F7780938000DFCF84B58F7758
:1001900084BDDBCF84B58F7DFBCF8091B0008F779E
:1001A0008093B000D2CF8091B0008F7DF9CF3E2BED
:1001B000DACFCF93DF9390E0FC01E556FF4F249117
:1001C00089579F4FFC0184918823D1F090E0880FDC
:1001D000991FFC01ED58FF4FA591B491FC01E35824
:1001E000FF4FC591D49161110EC09FB7F8948C91C7
:1001F000E22FE0958E238C932881E223E8839FBF32
:10020000DF91CF9108958FB7F894EC91E22BEC93A6
:100210008FBFF6CF3FB7F8948091CF019091D00176
:10022000A091D101B091D20126B5A89B05C02F3F66
:1002300019F00196A11DB11D3FBFBA2FA92F982F0C
:100240008827BC01CD01620F711D811D911D42E007
:10025000660F771F881F991F4A95D1F708959091CF
:10026000000189130BC0E2E7F0E0E4919FEF909367
:100270000001E13049F028F0E23061F060E00C94D8
:100280008D0010926E00FACF90916F009D7F909339
:100290006F00F4CF909170009D7F9093700091E07B
:1002A0009093B0009091B100987F94609093B100CA
:1002B0001092B300E3CFAF92BF92CF92DF92EF9252
:1002C000FF920F931F93CF93DF936C017B018B0100
:1002D000040F151FEB015E01AE18BF08C017D10750
:1002E00059F06991D601ED91FC910190F081E02DDA
:1002F000C6010995892B79F7C501DF91CF911F912F
:100300000F91FF90EF90DF90CF90BF90AF90089546
:10031000FC01538D448D252F30E0842F90E0821B0B
:10032000930B541710F0CF96089501970895FC0190
:10033000918D828D981761F0A28DAE0FBF2FB11DE8
:100340005D968C91928D9F5F9F73928F90E0089540
:100350008FEF9FEF0895FC01918D828D981731F0FA
:10036000828DE80FF11D858D90E008958FEF9FEF4E
:100370000895FC01918D228D892F90E0805C9F4F24
:10038000821B91098F73992708958DE291E00E9455
:10039000B90121E0892B09F420E0822F089580E043
:1003A00090E0892B29F00E94C50181110C94000076
:1003B0000895FC01A48DA80FB92FB11DA35ABF4FFA
:1003C0002C91848D90E001968F739927848FA68954
:1003D000B7892C93A089B1898C91837080648C93A8
:1003E000938D848D981306C00288F389E02D808157
:1003F0008F7D80830895EF92FF920F931F93CF9389
:10040000DF93EC0181E0888F9B8D8C8D98131AC04F
:10041000E889F989808185FF15C09FB7F894EE8936
:10042000FF896083E889F989808183708064808393
:100430009FBF81E090E0DF91CF911F910F91FF90DE
:10044000EF900895F62E0B8D10E00F5F1F4F0F7386
:100450001127E02E8C8D8E110CC00FB607FCFACF41
:10046000E889F989808185FFF5CFCE010E94D90105
:10047000F1CFEB8DEC0FFD2FF11DE35AFF4FF08212
:100480009FB7F8940B8FEA89FB8980818062CFCF78
:10049000CF93DF93EC01888D8823B9F0AA89BB89BB
:1004A000E889F9898C9185FD03C0808186FD0DC0A6
:1004B0000FB607FCF7CF8C9185FFF2CF808185FFC7
:1004C000EDCFCE010E94D901E9CFDF91CF91089500
:1004D0001F920F920FB60F9211242F933F938F9379
:1004E0009F93AF93BF938091CB019091CC01A0914A
:1004F000CD01B091CE013091CA0123E0230F2D37F9
:1005000058F50196A11DB11D2093CA018093CB011E
:100510009093CC01A093CD01B093CE018091CF01F7
:100520009091D001A091D101B091D2010196A11D6D
:10053000B11D8093CF019093D001A093D101B093CE
:10054000D201BF91AF919F918F913F912F910F90C9
:100550000FBE0F901F90189526E8230F0296A11D3D
:10056000B11DD2CF1F920F920FB60F9211242F936D
:100570003F934F935F936F937F938F939F93AF932B
:10058000BF93EF93FF938091210190912201A0915D
:100590002301B0912401892B8A2B8B2BD1F19091CF
:1005A0001C01E0911D01F0911E018081892780834B
:1005B0008091210190912201A0912301B091240109
:1005C000181619061A061B069CF4809121019091B9
:1005D0002201A0912301B09124010197A109B10941
:1005E0008093210190932201A0932301B0932401D1
:1005F000FF91EF91BF91AF919F918F917F916F91FB
:100600005F914F913F912F910F900FBE0F901F90D0
:100610001895809100010E942F01EACF1F920F923E
:100620000FB60F9211242F933F934F935F936F93C5
:100630007F938F939F93AF93BF93EF93FF938DE23D
:1006400091E00E94D901FF91EF91BF91AF919F91ED
:100650008F917F916F915F914F913F912F910F906B
:100660000FBE0F901F9018951F920F920FB60F920A
:1006700011242F938F939F93EF93FF93E0913D016C
:10068000F0913E018081E0914301F091440182FDAF
:100690001BC09081809146018F5F8F73209147012D
:1006A000821741F0E0914601F0E0E35DFE4F958F47
:1006B00080934601FF91EF919F918F912F910F9021
:1006C0000FBE0F901F9018958081F4CFCF92DF92CC
:1006D000EF92FF920F931F93E82FF92F05C001505F
:1006E00011092109310961F1908196239417B9F319
:1006F00005C0015011092109310911F1908196239A
:100700009413F7CFC12CD12CE12CF12C0AC08FEF20
:10071000C81AD80AE80AF80A0C151D052E053F0567
:1007200079F080818623841791F36C2D7D2D8E2D99
:100730009F2D1F910F91FF90EF90DF90CF90089524
:1007400060E070E080E090E01F910F91FF90EF90EB
:10075000DF90CF900895789484B5826084BD84B58D
:10076000816084BD85B5826085BD85B5816085BDAC
:1007700080916E00816080936E0010928100809164
:1007800081008260809381008091810081608093EC
:100790008100809180008160809380008091B10011
:1007A00084608093B1008091B00081608093B0003C
:1007B00080917A00846080937A0080917A008260D0
:1007C00080937A0080917A00816080937A00809192
:1007D0007A00806880937A001092C100E0913D0118
:1007E000F0913E0182E08083E0913901F0913A017D
:1007F0001082E0913B01F0913C018FEC80831092DC
:100800004501E0914101F091420186E08083E09151
:100810003F01F0914001808180618083E0913F0140
:10082000F0914001808188608083E0913F01F091E8
:100830004001808180688083E0913F01F091400118
:1008400080818F7D808361E083E00E94D90060E039
:1008500082E00E94D90061E084E00E94D9005BE858
:10086000252E50E0352ECFE9D0E0CC24CA94DC2CE4
:10087000760160E083E00E948D0083E090E00197C4
:10088000F1F761E083E00E948D0083E290E0019740
:10089000F1F760E083E00E948D00EDE9F0E0649103
:1008A000E9E8F0E08491E82FF0E0EE0FFF1FE8594F
:1008B000FF4F8591949100E412E42FE030E0462F41
:1008C0000E946603611571058105910529F06F5F2E
:1008D0007F4F8F4F9F4F9F702AE330E040E050E002
:1008E0000E94B905203131050CF012C144E050E0FE
:1008F00063E171E08DE291E00E945B0142E050E033
:1009000068E171E08DE291E00E945B01809100015D
:10091000843031F5E2E7F0E0149117FDC0C061E0EA
:1009200084E00E94D900112309F489C0123009F033
:100930009AC08091B100887F83608093B10089EF75
:100940008093B300C0922101D0922201E092230152
:10095000F0922401809170008260809370009FC0AB
:100960008F3F09F09CC084E080930001E2E7F0E053
:1009700014911F3F09F493C0113019F150F0123057
:1009800009F43CC017FD8BC061E084E00E94D900EF
:10099000CDCF14BC15BC84B5826084BD85B58160A3
:1009A00085BDF1018491E82FF0E0EE0FFF1FE358C1
:1009B000FF4F85919491FE0184918093200110E076
:1009C000AECF1092800010928100809181008860EB
:1009D0008093810080918100816080938100F1018A
:1009E0008491E82FF0E0EE0FFF1FE358FF4F859151
:1009F0009491FE01849180931F0191CF1092B000D9
:100A00001092B1008091B00082608093B00080911C
:100A1000B10081608093B100F1018491E82FF0E092
:100A2000EE0FFF1FE358FF4F8591949190931E01A5
:100A300080931D01FE01849180931C0170CF85B5C8
:100A4000887F836085BD8CE787BDC0922901D092E5
:100A50002A01E0922B01F0922C0180916E008260BD
:100A600080936E001CC0113009F04AC08091810053
:100A7000887F8160809381008FE39FE1909389005C
:100A800080938800C0922501D0922601E092270130
:100A9000F092280180916F00826080936F000E9425
:100AA0000A014B015C0184E6482E512C612C712C0B
:100AB0000E940A01681979098A099B09683E7340F6
:100AC00081059105A8F391E0491A51086108710860
:100AD000E8EE8E0EE3E09E1EA11CB11C41145104F1
:100AE0006104710429F780E090E0892B09F4C1CEFC
:100AF0000E94C501882309F4BCCE0E940000B9CE33
:100B0000123021F01111CBCF8FE39ECF8FE318CF9E
:100B100084E00E942F01C3CFEDE2F1E01382128244
:100B200088EE93E0A0E0B0E084839583A683B7834A
:100B300085E091E09183808385EC90E095878487C0
:100B400084EC90E09787868780EC90E0918B808B97
:100B500081EC90E0938B828B82EC90E0958B848B80
:100B600086EC90E0978B868B118E128E138E148EEE
:100B70000895052E97FB1EF400940E94D00557FDA2
:100B800007D00E94D80507FC03D04EF40C94D00582
:100B900050954095309521953F4F4F4F5F4F0895A9
:100BA00090958095709561957F4F8F4F9F4F0895D9
:100BB000A1E21A2EAA1BBB1BFD010DC0AA1FBB1F61
:100BC000EE1FFF1FA217B307E407F50720F0A21BD3
:100BD000B30BE40BF50B661F771F881F991F1A9440
:100BE00069F760957095809590959B01AC01BD016A
:100BF000CF010895EE0FFF1F0590F491E02D0994A9
:100C0000F894FFCFFF00000000FB015B0188014862
:100C100002B9019701AB01414C544F000D0A00008D
:107E0000112484B714BE81FFF0D085E080938100F7
:107E100082E08093C00088E18093C10086E0809377
:107E2000C20080E18093C4008EE0C9D0259A86E02C
:107E300020E33CEF91E0309385002093840096BBD3
:107E4000B09BFECF1D9AA8958150A9F7CC24DD24C4
:107E500088248394B5E0AB2EA1E19A2EF3E0BF2EE7
:107E6000A2D0813461F49FD0082FAFD0023811F036
:107E7000013811F484E001C083E08DD089C08234E0
:107E800011F484E103C0853419F485E0A6D080C0E4
:107E9000853579F488D0E82EFF2485D0082F10E0AE
:107EA000102F00270E291F29000F111F8ED06801E7
:107EB0006FC0863521F484E090D080E0DECF843638
:107EC00009F040C070D06FD0082F6DD080E0C81688
:107ED00080E7D80618F4F601B7BEE895C0E0D1E017
:107EE00062D089930C17E1F7F0E0CF16F0E7DF06D8
:107EF00018F0F601B7BEE89568D007B600FCFDCFD4
:107F0000A601A0E0B1E02C9130E011968C91119780
:107F100090E0982F8827822B932B1296FA010C0160
:107F200087BEE89511244E5F5F4FF1E0A038BF0790
:107F300051F7F601A7BEE89507B600FCFDCF97BE46
:107F4000E89526C08437B1F42ED02DD0F82E2BD052
:107F50003CD0F601EF2C8F010F5F1F4F84911BD097
:107F6000EA94F801C1F70894C11CD11CFA94CF0C13
:107F7000D11C0EC0853739F428D08EE10CD085E9AC
:107F80000AD08FE07ACF813511F488E018D01DD067
:107F900080E101D065CF982F8091C00085FFFCCF94
:107FA0009093C60008958091C00087FFFCCF809118
:107FB000C00084FD01C0A8958091C6000895E0E648
:107FC000F0E098E1908380830895EDDF803219F02E
:107FD00088E0F5DFFFCF84E1DECF1F93182FE3DFCA
:107FE0001150E9F7F2DF1F91089580E0E8DFEE27F6
:047FF000FF270994CA
:027FFE00040479
:00000001FF
